{
  "contractName": "Game",
  "abi": [
    {
      "inputs": [],
      "stateMutability": "nonpayable",
      "type": "constructor"
    },
    {
      "inputs": [
        {
          "internalType": "address",
          "name": "sender",
          "type": "address"
        },
        {
          "internalType": "uint256",
          "name": "tokenId",
          "type": "uint256"
        },
        {
          "internalType": "address",
          "name": "owner",
          "type": "address"
        }
      ],
      "name": "ERC721IncorrectOwner",
      "type": "error"
    },
    {
      "inputs": [
        {
          "internalType": "address",
          "name": "operator",
          "type": "address"
        },
        {
          "internalType": "uint256",
          "name": "tokenId",
          "type": "uint256"
        }
      ],
      "name": "ERC721InsufficientApproval",
      "type": "error"
    },
    {
      "inputs": [
        {
          "internalType": "address",
          "name": "approver",
          "type": "address"
        }
      ],
      "name": "ERC721InvalidApprover",
      "type": "error"
    },
    {
      "inputs": [
        {
          "internalType": "address",
          "name": "operator",
          "type": "address"
        }
      ],
      "name": "ERC721InvalidOperator",
      "type": "error"
    },
    {
      "inputs": [
        {
          "internalType": "address",
          "name": "owner",
          "type": "address"
        }
      ],
      "name": "ERC721InvalidOwner",
      "type": "error"
    },
    {
      "inputs": [
        {
          "internalType": "address",
          "name": "receiver",
          "type": "address"
        }
      ],
      "name": "ERC721InvalidReceiver",
      "type": "error"
    },
    {
      "inputs": [
        {
          "internalType": "address",
          "name": "sender",
          "type": "address"
        }
      ],
      "name": "ERC721InvalidSender",
      "type": "error"
    },
    {
      "inputs": [
        {
          "internalType": "uint256",
          "name": "tokenId",
          "type": "uint256"
        }
      ],
      "name": "ERC721NonexistentToken",
      "type": "error"
    },
    {
      "inputs": [
        {
          "internalType": "address",
          "name": "owner",
          "type": "address"
        }
      ],
      "name": "OwnableInvalidOwner",
      "type": "error"
    },
    {
      "inputs": [
        {
          "internalType": "address",
          "name": "account",
          "type": "address"
        }
      ],
      "name": "OwnableUnauthorizedAccount",
      "type": "error"
    },
    {
      "anonymous": false,
      "inputs": [
        {
          "indexed": true,
          "internalType": "address",
          "name": "owner",
          "type": "address"
        },
        {
          "indexed": true,
          "internalType": "address",
          "name": "approved",
          "type": "address"
        },
        {
          "indexed": true,
          "internalType": "uint256",
          "name": "tokenId",
          "type": "uint256"
        }
      ],
      "name": "Approval",
      "type": "event"
    },
    {
      "anonymous": false,
      "inputs": [
        {
          "indexed": true,
          "internalType": "address",
          "name": "owner",
          "type": "address"
        },
        {
          "indexed": true,
          "internalType": "address",
          "name": "operator",
          "type": "address"
        },
        {
          "indexed": false,
          "internalType": "bool",
          "name": "approved",
          "type": "bool"
        }
      ],
      "name": "ApprovalForAll",
      "type": "event"
    },
    {
      "anonymous": false,
      "inputs": [
        {
          "indexed": true,
          "internalType": "uint256",
          "name": "tokenId",
          "type": "uint256"
        },
        {
          "indexed": true,
          "internalType": "address",
          "name": "to",
          "type": "address"
        },
        {
          "indexed": false,
          "internalType": "string",
          "name": "name",
          "type": "string"
        },
        {
          "indexed": false,
          "internalType": "uint256",
          "name": "rarity",
          "type": "uint256"
        }
      ],
      "name": "AssetMinted",
      "type": "event"
    },
    {
      "anonymous": false,
      "inputs": [
        {
          "indexed": true,
          "internalType": "uint256",
          "name": "tokenId",
          "type": "uint256"
        },
        {
          "indexed": true,
          "internalType": "address",
          "name": "from",
          "type": "address"
        },
        {
          "indexed": true,
          "internalType": "address",
          "name": "to",
          "type": "address"
        }
      ],
      "name": "AssetTransferred",
      "type": "event"
    },
    {
      "anonymous": false,
      "inputs": [
        {
          "indexed": true,
          "internalType": "address",
          "name": "previousOwner",
          "type": "address"
        },
        {
          "indexed": true,
          "internalType": "address",
          "name": "newOwner",
          "type": "address"
        }
      ],
      "name": "OwnershipTransferred",
      "type": "event"
    },
    {
      "anonymous": false,
      "inputs": [
        {
          "indexed": true,
          "internalType": "address",
          "name": "player",
          "type": "address"
        }
      ],
      "name": "PlayerRegistered",
      "type": "event"
    },
    {
      "anonymous": false,
      "inputs": [
        {
          "indexed": true,
          "internalType": "address",
          "name": "player",
          "type": "address"
        },
        {
          "indexed": false,
          "internalType": "uint256",
          "name": "newScore",
          "type": "uint256"
        }
      ],
      "name": "ScoreUpdated",
      "type": "event"
    },
    {
      "anonymous": false,
      "inputs": [
        {
          "indexed": true,
          "internalType": "address",
          "name": "from",
          "type": "address"
        },
        {
          "indexed": true,
          "internalType": "address",
          "name": "to",
          "type": "address"
        },
        {
          "indexed": true,
          "internalType": "uint256",
          "name": "tokenId",
          "type": "uint256"
        }
      ],
      "name": "Transfer",
      "type": "event"
    },
    {
      "inputs": [
        {
          "internalType": "address",
          "name": "to",
          "type": "address"
        },
        {
          "internalType": "uint256",
          "name": "tokenId",
          "type": "uint256"
        }
      ],
      "name": "approve",
      "outputs": [],
      "stateMutability": "nonpayable",
      "type": "function"
    },
    {
      "inputs": [
        {
          "internalType": "uint256",
          "name": "",
          "type": "uint256"
        }
      ],
      "name": "assets",
      "outputs": [
        {
          "internalType": "string",
          "name": "name",
          "type": "string"
        },
        {
          "internalType": "uint256",
          "name": "rarity",
          "type": "uint256"
        },
        {
          "internalType": "address",
          "name": "owner",
          "type": "address"
        }
      ],
      "stateMutability": "view",
      "type": "function"
    },
    {
      "inputs": [
        {
          "internalType": "address",
          "name": "owner",
          "type": "address"
        }
      ],
      "name": "balanceOf",
      "outputs": [
        {
          "internalType": "uint256",
          "name": "",
          "type": "uint256"
        }
      ],
      "stateMutability": "view",
      "type": "function"
    },
    {
      "inputs": [
        {
          "internalType": "uint256",
          "name": "tokenId",
          "type": "uint256"
        }
      ],
      "name": "getApproved",
      "outputs": [
        {
          "internalType": "address",
          "name": "",
          "type": "address"
        }
      ],
      "stateMutability": "view",
      "type": "function"
    },
    {
      "inputs": [
        {
          "internalType": "address",
          "name": "owner",
          "type": "address"
        },
        {
          "internalType": "address",
          "name": "operator",
          "type": "address"
        }
      ],
      "name": "isApprovedForAll",
      "outputs": [
        {
          "internalType": "bool",
          "name": "",
          "type": "bool"
        }
      ],
      "stateMutability": "view",
      "type": "function"
    },
    {
      "inputs": [],
      "name": "name",
      "outputs": [
        {
          "internalType": "string",
          "name": "",
          "type": "string"
        }
      ],
      "stateMutability": "view",
      "type": "function"
    },
    {
      "inputs": [],
      "name": "owner",
      "outputs": [
        {
          "internalType": "address",
          "name": "",
          "type": "address"
        }
      ],
      "stateMutability": "view",
      "type": "function"
    },
    {
      "inputs": [
        {
          "internalType": "uint256",
          "name": "tokenId",
          "type": "uint256"
        }
      ],
      "name": "ownerOf",
      "outputs": [
        {
          "internalType": "address",
          "name": "",
          "type": "address"
        }
      ],
      "stateMutability": "view",
      "type": "function"
    },
    {
      "inputs": [
        {
          "internalType": "address",
          "name": "",
          "type": "address"
        }
      ],
      "name": "players",
      "outputs": [
        {
          "internalType": "bool",
          "name": "registered",
          "type": "bool"
        },
        {
          "internalType": "uint256",
          "name": "score",
          "type": "uint256"
        }
      ],
      "stateMutability": "view",
      "type": "function"
    },
    {
      "inputs": [],
      "name": "renounceOwnership",
      "outputs": [],
      "stateMutability": "nonpayable",
      "type": "function"
    },
    {
      "inputs": [
        {
          "internalType": "address",
          "name": "from",
          "type": "address"
        },
        {
          "internalType": "address",
          "name": "to",
          "type": "address"
        },
        {
          "internalType": "uint256",
          "name": "tokenId",
          "type": "uint256"
        }
      ],
      "name": "safeTransferFrom",
      "outputs": [],
      "stateMutability": "nonpayable",
      "type": "function"
    },
    {
      "inputs": [
        {
          "internalType": "address",
          "name": "from",
          "type": "address"
        },
        {
          "internalType": "address",
          "name": "to",
          "type": "address"
        },
        {
          "internalType": "uint256",
          "name": "tokenId",
          "type": "uint256"
        },
        {
          "internalType": "bytes",
          "name": "data",
          "type": "bytes"
        }
      ],
      "name": "safeTransferFrom",
      "outputs": [],
      "stateMutability": "nonpayable",
      "type": "function"
    },
    {
      "inputs": [
        {
          "internalType": "address",
          "name": "operator",
          "type": "address"
        },
        {
          "internalType": "bool",
          "name": "approved",
          "type": "bool"
        }
      ],
      "name": "setApprovalForAll",
      "outputs": [],
      "stateMutability": "nonpayable",
      "type": "function"
    },
    {
      "inputs": [
        {
          "internalType": "bytes4",
          "name": "interfaceId",
          "type": "bytes4"
        }
      ],
      "name": "supportsInterface",
      "outputs": [
        {
          "internalType": "bool",
          "name": "",
          "type": "bool"
        }
      ],
      "stateMutability": "view",
      "type": "function"
    },
    {
      "inputs": [],
      "name": "symbol",
      "outputs": [
        {
          "internalType": "string",
          "name": "",
          "type": "string"
        }
      ],
      "stateMutability": "view",
      "type": "function"
    },
    {
      "inputs": [
        {
          "internalType": "uint256",
          "name": "tokenId",
          "type": "uint256"
        }
      ],
      "name": "tokenURI",
      "outputs": [
        {
          "internalType": "string",
          "name": "",
          "type": "string"
        }
      ],
      "stateMutability": "view",
      "type": "function"
    },
    {
      "inputs": [
        {
          "internalType": "address",
          "name": "from",
          "type": "address"
        },
        {
          "internalType": "address",
          "name": "to",
          "type": "address"
        },
        {
          "internalType": "uint256",
          "name": "tokenId",
          "type": "uint256"
        }
      ],
      "name": "transferFrom",
      "outputs": [],
      "stateMutability": "nonpayable",
      "type": "function"
    },
    {
      "inputs": [
        {
          "internalType": "address",
          "name": "newOwner",
          "type": "address"
        }
      ],
      "name": "transferOwnership",
      "outputs": [],
      "stateMutability": "nonpayable",
      "type": "function"
    },
    {
      "inputs": [],
      "name": "registerPlayer",
      "outputs": [],
      "stateMutability": "nonpayable",
      "type": "function"
    },
    {
      "inputs": [
        {
          "internalType": "address",
          "name": "to",
          "type": "address"
        },
        {
          "internalType": "string",
          "name": "name",
          "type": "string"
        },
        {
          "internalType": "uint256",
          "name": "rarity",
          "type": "uint256"
        }
      ],
      "name": "mintAsset",
      "outputs": [
        {
          "internalType": "uint256",
          "name": "",
          "type": "uint256"
        }
      ],
      "stateMutability": "nonpayable",
      "type": "function"
    },
    {
      "inputs": [
        {
          "internalType": "address",
          "name": "player",
          "type": "address"
        },
        {
          "internalType": "uint256",
          "name": "score",
          "type": "uint256"
        }
      ],
      "name": "updateScore",
      "outputs": [],
      "stateMutability": "nonpayable",
      "type": "function"
    },
    {
      "inputs": [
        {
          "internalType": "uint256",
          "name": "tokenId",
          "type": "uint256"
        },
        {
          "internalType": "address",
          "name": "to",
          "type": "address"
        }
      ],
      "name": "transferAsset",
      "outputs": [],
      "stateMutability": "nonpayable",
      "type": "function"
    },
    {
      "inputs": [
        {
          "internalType": "address",
          "name": "addr",
          "type": "address"
        }
      ],
      "name": "getPlayer",
      "outputs": [
        {
          "internalType": "bool",
          "name": "registered",
          "type": "bool"
        },
        {
          "internalType": "uint256",
          "name": "score",
          "type": "uint256"
        }
      ],
      "stateMutability": "view",
      "type": "function"
    },
    {
      "inputs": [
        {
          "internalType": "uint256",
          "name": "tokenId",
          "type": "uint256"
        }
      ],
      "name": "getAsset",
      "outputs": [
        {
          "internalType": "string",
          "name": "name",
          "type": "string"
        },
        {
          "internalType": "uint256",
          "name": "rarity",
          "type": "uint256"
        },
        {
          "internalType": "address",
          "name": "owner",
          "type": "address"
        }
      ],
      "stateMutability": "view",
      "type": "function"
    }
  ],
  "bytecode": "0x608060405234801562000010575f80fd5b50336040518060400160405280600981526020017f47616d65417373657400000000000000000000000000000000000000000000008152506040518060400160405280600481526020017f4741535400000000000000000000000000000000000000000000000000000000815250815f90816200008e919062000455565b508060019081620000a0919062000455565b5050505f73ffffffffffffffffffffffffffffffffffffffff168173ffffffffffffffffffffffffffffffffffffffff160362000116575f6040517f1e4fbdf70000000000000000000000000000000000000000000000000000000081526004016200010d91906200057c565b60405180910390fd5b62000127816200012e60201b60201c565b5062000597565b5f60065f9054906101000a900473ffffffffffffffffffffffffffffffffffffffff1690508160065f6101000a81548173ffffffffffffffffffffffffffffffffffffffff021916908373ffffffffffffffffffffffffffffffffffffffff1602179055508173ffffffffffffffffffffffffffffffffffffffff168173ffffffffffffffffffffffffffffffffffffffff167f8be0079c531659141344cd1fd0a4f28419497f9722a3daafe3b4186f6b6457e060405160405180910390a35050565b5f81519050919050565b7f4e487b71000000000000000000000000000000000000000000000000000000005f52604160045260245ffd5b7f4e487b71000000000000000000000000000000000000000000000000000000005f52602260045260245ffd5b5f60028204905060018216806200026d57607f821691505b60208210810362000283576200028262000228565b5b50919050565b5f819050815f5260205f209050919050565b5f6020601f8301049050919050565b5f82821b905092915050565b5f60088302620002e77fffffffffffffffffffffffffffffffffffffffffffffffffffffffffffffffff82620002aa565b620002f38683620002aa565b95508019841693508086168417925050509392505050565b5f819050919050565b5f819050919050565b5f6200033d6200033762000331846200030b565b62000314565b6200030b565b9050919050565b5f819050919050565b62000358836200031d565b62000370620003678262000344565b848454620002b6565b825550505050565b5f90565b6200038662000378565b620003938184846200034d565b505050565b5b81811015620003ba57620003ae5f826200037c565b60018101905062000399565b5050565b601f8211156200040957620003d38162000289565b620003de846200029b565b81016020851015620003ee578190505b62000406620003fd856200029b565b83018262000398565b50505b505050565b5f82821c905092915050565b5f6200042b5f19846008026200040e565b1980831691505092915050565b5f6200044583836200041a565b9150826002028217905092915050565b6200046082620001f1565b67ffffffffffffffff8111156200047c576200047b620001fb565b5b62000488825462000255565b62000495828285620003be565b5f60209050601f831160018114620004cb575f8415620004b6578287015190505b620004c2858262000438565b86555062000531565b601f198416620004db8662000289565b5f5b828110156200050457848901518255600182019150602085019450602081019050620004dd565b8683101562000524578489015162000520601f8916826200041a565b8355505b6001600288020188555050505b505050505050565b5f73ffffffffffffffffffffffffffffffffffffffff82169050919050565b5f620005648262000539565b9050919050565b620005768162000558565b82525050565b5f602082019050620005915f8301846200056b565b92915050565b61320580620005a55f395ff3fe608060405234801561000f575f80fd5b5060043610610156575f3560e01c80638da5cb5b116100c1578063e0020f3a1161007a578063e0020f3a146103c3578063e2eb41ff146103f3578063e985e9c514610424578063eac8f5b814610454578063f2fde38b14610486578063fa62ee8d146104a257610156565b80638da5cb5b146102ed57806395d89b411461030b578063a22cb46514610329578063b88d4fde14610345578063c87b56dd14610361578063cf35bdd01461039157610156565b80635c07a4b0116101135780635c07a4b01461022c5780635c12cd4b146102365780636352211e1461026757806365d977241461029757806370a08231146102b3578063715018a6146102e357610156565b806301ffc9a71461015a57806306fdde031461018a578063081812fc146101a8578063095ea7b3146101d857806323b872dd146101f457806342842e0e14610210575b5f80fd5b610174600480360381019061016f919061244b565b6104be565b6040516101819190612490565b60405180910390f35b61019261059f565b60405161019f9190612533565b60405180910390f35b6101c260048036038101906101bd9190612586565b61062e565b6040516101cf91906125f0565b60405180910390f35b6101f260048036038101906101ed9190612633565b610649565b005b61020e60048036038101906102099190612671565b61065f565b005b61022a60048036038101906102259190612671565b61075e565b005b61023461077d565b005b610250600480360381019061024b91906126c1565b6108cd565b60405161025e9291906126fb565b60405180910390f35b610281600480360381019061027c9190612586565b610950565b60405161028e91906125f0565b60405180910390f35b6102b160048036038101906102ac9190612633565b610961565b005b6102cd60048036038101906102c891906126c1565b610a8d565b6040516102da9190612722565b60405180910390f35b6102eb610b43565b005b6102f5610b56565b60405161030291906125f0565b60405180910390f35b610313610b7e565b6040516103209190612533565b60405180910390f35b610343600480360381019061033e9190612765565b610c0e565b005b61035f600480360381019061035a91906128cf565b610c24565b005b61037b60048036038101906103769190612586565b610c41565b6040516103889190612533565b60405180910390f35b6103ab60048036038101906103a69190612586565b610ca7565b6040516103ba9392919061294f565b60405180910390f35b6103dd60048036038101906103d891906129e8565b610d72565b6040516103ea9190612722565b60405180910390f35b61040d600480360381019061040891906126c1565b610fcb565b60405161041b9291906126fb565b60405180910390f35b61043e60048036038101906104399190612a59565b610ff7565b60405161044b9190612490565b60405180910390f35b61046e60048036038101906104699190612586565b611085565b60405161047d9392919061294f565b60405180910390f35b6104a0600480360381019061049b91906126c1565b6111b2565b005b6104bc60048036038101906104b79190612a97565b611236565b005b5f7f80ac58cd000000000000000000000000000000000000000000000000000000007bffffffffffffffffffffffffffffffffffffffffffffffffffffffff1916827bffffffffffffffffffffffffffffffffffffffffffffffffffffffff1916148061058857507f5b5e139f000000000000000000000000000000000000000000000000000000007bffffffffffffffffffffffffffffffffffffffffffffffffffffffff1916827bffffffffffffffffffffffffffffffffffffffffffffffffffffffff1916145b806105985750610597826113f5565b5b9050919050565b60605f80546105ad90612b02565b80601f01602080910402602001604051908101604052809291908181526020018280546105d990612b02565b80156106245780601f106105fb57610100808354040283529160200191610624565b820191905f5260205f20905b81548152906001019060200180831161060757829003601f168201915b5050505050905090565b5f6106388261145e565b50610642826114e4565b9050919050565b61065b828261065661151d565b611524565b5050565b5f73ffffffffffffffffffffffffffffffffffffffff168273ffffffffffffffffffffffffffffffffffffffff16036106cf575f6040517f64a0ae920000000000000000000000000000000000000000000000000000000081526004016106c691906125f0565b60405180910390fd5b5f6106e283836106dd61151d565b611536565b90508373ffffffffffffffffffffffffffffffffffffffff168173ffffffffffffffffffffffffffffffffffffffff1614610758578382826040517f64283d7b00000000000000000000000000000000000000000000000000000000815260040161074f93929190612b32565b60405180910390fd5b50505050565b61077883838360405180602001604052805f815250610c24565b505050565b60085f3373ffffffffffffffffffffffffffffffffffffffff1673ffffffffffffffffffffffffffffffffffffffff1681526020019081526020015f205f015f9054906101000a900460ff1615610809576040517f08c379a000000000000000000000000000000000000000000000000000000000815260040161080090612bb1565b60405180910390fd5b60405180604001604052806001151581526020015f81525060085f3373ffffffffffffffffffffffffffffffffffffffff1673ffffffffffffffffffffffffffffffffffffffff1681526020019081526020015f205f820151815f015f6101000a81548160ff021916908315150217905550602082015181600101559050503373ffffffffffffffffffffffffffffffffffffffff167f8cd3331e32cec677d80b82cf0f71496605e7ed6ff864a3ccedc7d5d11d838c8360405160405180910390a2565b5f805f60085f8573ffffffffffffffffffffffffffffffffffffffff1673ffffffffffffffffffffffffffffffffffffffff1681526020019081526020015f206040518060400160405290815f82015f9054906101000a900460ff161515151581526020016001820154815250509050805f015181602001519250925050915091565b5f61095a8261145e565b9050919050565b610969611741565b8160085f8273ffffffffffffffffffffffffffffffffffffffff1673ffffffffffffffffffffffffffffffffffffffff1681526020019081526020015f205f015f9054906101000a900460ff166109f5576040517f08c379a00000000000000000000000000000000000000000000000000000000081526004016109ec90612c19565b60405180910390fd5b8160085f8573ffffffffffffffffffffffffffffffffffffffff1673ffffffffffffffffffffffffffffffffffffffff1681526020019081526020015f20600101819055508273ffffffffffffffffffffffffffffffffffffffff167f66ead48cfe0e1d1aa8bad492e906c348dfcfeecbf3b7b2cdf9b1f3cfa42a294583604051610a809190612722565b60405180910390a2505050565b5f8073ffffffffffffffffffffffffffffffffffffffff168273ffffffffffffffffffffffffffffffffffffffff1603610afe575f6040517f89c62b64000000000000000000000000000000000000000000000000000000008152600401610af591906125f0565b60405180910390fd5b60035f8373ffffffffffffffffffffffffffffffffffffffff1673ffffffffffffffffffffffffffffffffffffffff1681526020019081526020015f20549050919050565b610b4b611741565b610b545f6117c8565b565b5f60065f9054906101000a900473ffffffffffffffffffffffffffffffffffffffff16905090565b606060018054610b8d90612b02565b80601f0160208091040260200160405190810160405280929190818152602001828054610bb990612b02565b8015610c045780601f10610bdb57610100808354040283529160200191610c04565b820191905f5260205f20905b815481529060010190602001808311610be757829003601f168201915b5050505050905090565b610c20610c1961151d565b838361188b565b5050565b610c2f84848461065f565b610c3b848484846119f4565b50505050565b6060610c4c8261145e565b505f610c56611ba6565b90505f815111610c745760405180602001604052805f815250610c9f565b80610c7e84611bbc565b604051602001610c8f929190612c71565b6040516020818303038152906040525b915050919050565b6009602052805f5260405f205f91509050805f018054610cc690612b02565b80601f0160208091040260200160405190810160405280929190818152602001828054610cf290612b02565b8015610d3d5780601f10610d1457610100808354040283529160200191610d3d565b820191905f5260205f20905b815481529060010190602001808311610d2057829003601f168201915b505050505090806001015490806002015f9054906101000a900473ffffffffffffffffffffffffffffffffffffffff16905083565b5f610d7b611741565b8460085f8273ffffffffffffffffffffffffffffffffffffffff1673ffffffffffffffffffffffffffffffffffffffff1681526020019081526020015f205f015f9054906101000a900460ff16610e07576040517f08c379a0000000000000000000000000000000000000000000000000000000008152600401610dfe90612c19565b60405180910390fd5b60018310158015610e19575060038311155b610e58576040517f08c379a0000000000000000000000000000000000000000000000000000000008152600401610e4f90612cde565b60405180910390fd5b60075f815480929190610e6a90612d29565b91905055505f6007549050610e7f8782611c86565b604051806060016040528087878080601f0160208091040260200160405190810160405280939291908181526020018383808284375f81840152601f19601f8201169050808301925050505050505081526020018581526020018873ffffffffffffffffffffffffffffffffffffffff1681525060095f8381526020019081526020015f205f820151815f019081610f179190612f0d565b50602082015181600101556040820151816002015f6101000a81548173ffffffffffffffffffffffffffffffffffffffff021916908373ffffffffffffffffffffffffffffffffffffffff1602179055509050508673ffffffffffffffffffffffffffffffffffffffff16817f547a0605917937829f968c64484ab42901fa23cf9bdd38b5c28bd707a180dbc8888888604051610fb693929190613008565b60405180910390a38092505050949350505050565b6008602052805f5260405f205f91509050805f015f9054906101000a900460ff16908060010154905082565b5f60055f8473ffffffffffffffffffffffffffffffffffffffff1673ffffffffffffffffffffffffffffffffffffffff1681526020019081526020015f205f8373ffffffffffffffffffffffffffffffffffffffff1673ffffffffffffffffffffffffffffffffffffffff1681526020019081526020015f205f9054906101000a900460ff16905092915050565b60605f805f60095f8681526020019081526020015f206040518060600160405290815f820180546110b590612b02565b80601f01602080910402602001604051908101604052809291908181526020018280546110e190612b02565b801561112c5780601f106111035761010080835404028352916020019161112c565b820191905f5260205f20905b81548152906001019060200180831161110f57829003601f168201915b5050505050815260200160018201548152602001600282015f9054906101000a900473ffffffffffffffffffffffffffffffffffffffff1673ffffffffffffffffffffffffffffffffffffffff1673ffffffffffffffffffffffffffffffffffffffff16815250509050805f015181602001518260400151935093509350509193909250565b6111ba611741565b5f73ffffffffffffffffffffffffffffffffffffffff168173ffffffffffffffffffffffffffffffffffffffff160361122a575f6040517f1e4fbdf700000000000000000000000000000000000000000000000000000000815260040161122191906125f0565b60405180910390fd5b611233816117c8565b50565b8060085f8273ffffffffffffffffffffffffffffffffffffffff1673ffffffffffffffffffffffffffffffffffffffff1681526020019081526020015f205f015f9054906101000a900460ff166112c2576040517f08c379a00000000000000000000000000000000000000000000000000000000081526004016112b990612c19565b60405180910390fd5b3373ffffffffffffffffffffffffffffffffffffffff166112e284610950565b73ffffffffffffffffffffffffffffffffffffffff1614611338576040517f08c379a000000000000000000000000000000000000000000000000000000000815260040161132f90613082565b60405180910390fd5b611343338385611ca3565b8160095f8581526020019081526020015f206002015f6101000a81548173ffffffffffffffffffffffffffffffffffffffff021916908373ffffffffffffffffffffffffffffffffffffffff1602179055508173ffffffffffffffffffffffffffffffffffffffff163373ffffffffffffffffffffffffffffffffffffffff16847fa993eb3a10693085bc7afc1de0202310fbd5992b9e51edd263b198f62f20cdae60405160405180910390a4505050565b5f7f01ffc9a7000000000000000000000000000000000000000000000000000000007bffffffffffffffffffffffffffffffffffffffffffffffffffffffff1916827bffffffffffffffffffffffffffffffffffffffffffffffffffffffff1916149050919050565b5f8061146983611e0b565b90505f73ffffffffffffffffffffffffffffffffffffffff168173ffffffffffffffffffffffffffffffffffffffff16036114db57826040517f7e2732890000000000000000000000000000000000000000000000000000000081526004016114d29190612722565b60405180910390fd5b80915050919050565b5f60045f8381526020019081526020015f205f9054906101000a900473ffffffffffffffffffffffffffffffffffffffff169050919050565b5f33905090565b6115318383836001611e44565b505050565b5f8061154184611e0b565b90505f73ffffffffffffffffffffffffffffffffffffffff168373ffffffffffffffffffffffffffffffffffffffff161461158257611581818486612003565b5b5f73ffffffffffffffffffffffffffffffffffffffff168173ffffffffffffffffffffffffffffffffffffffff161461160d576115c15f855f80611e44565b600160035f8373ffffffffffffffffffffffffffffffffffffffff1673ffffffffffffffffffffffffffffffffffffffff1681526020019081526020015f205f82825403925050819055505b5f73ffffffffffffffffffffffffffffffffffffffff168573ffffffffffffffffffffffffffffffffffffffff161461168c57600160035f8773ffffffffffffffffffffffffffffffffffffffff1673ffffffffffffffffffffffffffffffffffffffff1681526020019081526020015f205f82825401925050819055505b8460025f8681526020019081526020015f205f6101000a81548173ffffffffffffffffffffffffffffffffffffffff021916908373ffffffffffffffffffffffffffffffffffffffff160217905550838573ffffffffffffffffffffffffffffffffffffffff168273ffffffffffffffffffffffffffffffffffffffff167fddf252ad1be2c89b69c2b068fc378daa952ba7f163c4a11628f55a4df523b3ef60405160405180910390a4809150509392505050565b61174961151d565b73ffffffffffffffffffffffffffffffffffffffff16611767610b56565b73ffffffffffffffffffffffffffffffffffffffff16146117c65761178a61151d565b6040517f118cdaa70000000000000000000000000000000000000000000000000000000081526004016117bd91906125f0565b60405180910390fd5b565b5f60065f9054906101000a900473ffffffffffffffffffffffffffffffffffffffff1690508160065f6101000a81548173ffffffffffffffffffffffffffffffffffffffff021916908373ffffffffffffffffffffffffffffffffffffffff1602179055508173ffffffffffffffffffffffffffffffffffffffff168173ffffffffffffffffffffffffffffffffffffffff167f8be0079c531659141344cd1fd0a4f28419497f9722a3daafe3b4186f6b6457e060405160405180910390a35050565b5f73ffffffffffffffffffffffffffffffffffffffff168273ffffffffffffffffffffffffffffffffffffffff16036118fb57816040517f5b08ba180000000000000000000000000000000000000000000000000000000081526004016118f291906125f0565b60405180910390fd5b8060055f8573ffffffffffffffffffffffffffffffffffffffff1673ffffffffffffffffffffffffffffffffffffffff1681526020019081526020015f205f8473ffffffffffffffffffffffffffffffffffffffff1673ffffffffffffffffffffffffffffffffffffffff1681526020019081526020015f205f6101000a81548160ff0219169083151502179055508173ffffffffffffffffffffffffffffffffffffffff168373ffffffffffffffffffffffffffffffffffffffff167f17307eab39ab6107e8899845ad3d59bd9653f200f220920489ca2b5937696c31836040516119e79190612490565b60405180910390a3505050565b5f8373ffffffffffffffffffffffffffffffffffffffff163b1115611ba0578273ffffffffffffffffffffffffffffffffffffffff1663150b7a02611a3761151d565b8685856040518563ffffffff1660e01b8152600401611a5994939291906130f2565b6020604051808303815f875af1925050508015611a9457506040513d601f19601f82011682018060405250810190611a919190613150565b60015b611b15573d805f8114611ac2576040519150601f19603f3d011682016040523d82523d5f602084013e611ac7565b606091505b505f815103611b0d57836040517f64a0ae92000000000000000000000000000000000000000000000000000000008152600401611b0491906125f0565b60405180910390fd5b805181602001fd5b63150b7a0260e01b7bffffffffffffffffffffffffffffffffffffffffffffffffffffffff1916817bffffffffffffffffffffffffffffffffffffffffffffffffffffffff191614611b9e57836040517f64a0ae92000000000000000000000000000000000000000000000000000000008152600401611b9591906125f0565b60405180910390fd5b505b50505050565b606060405180602001604052805f815250905090565b60605f6001611bca846120c6565b0190505f8167ffffffffffffffff811115611be857611be76127ab565b5b6040519080825280601f01601f191660200182016040528015611c1a5781602001600182028036833780820191505090505b5090505f82602001820190505b600115611c7b578080600190039150507f3031323334353637383961626364656600000000000000000000000000000000600a86061a8153600a8581611c7057611c6f61317b565b5b0494505f8503611c27575b819350505050919050565b611c9f828260405180602001604052805f815250612217565b5050565b5f73ffffffffffffffffffffffffffffffffffffffff168273ffffffffffffffffffffffffffffffffffffffff1603611d13575f6040517f64a0ae92000000000000000000000000000000000000000000000000000000008152600401611d0a91906125f0565b60405180910390fd5b5f611d1f83835f611536565b90505f73ffffffffffffffffffffffffffffffffffffffff168173ffffffffffffffffffffffffffffffffffffffff1603611d9157816040517f7e273289000000000000000000000000000000000000000000000000000000008152600401611d889190612722565b60405180910390fd5b8373ffffffffffffffffffffffffffffffffffffffff168173ffffffffffffffffffffffffffffffffffffffff1614611e05578382826040517f64283d7b000000000000000000000000000000000000000000000000000000008152600401611dfc93929190612b32565b60405180910390fd5b50505050565b5f60025f8381526020019081526020015f205f9054906101000a900473ffffffffffffffffffffffffffffffffffffffff169050919050565b8080611e7c57505f73ffffffffffffffffffffffffffffffffffffffff168273ffffffffffffffffffffffffffffffffffffffff1614155b15611fae575f611e8b8461145e565b90505f73ffffffffffffffffffffffffffffffffffffffff168373ffffffffffffffffffffffffffffffffffffffff1614158015611ef557508273ffffffffffffffffffffffffffffffffffffffff168173ffffffffffffffffffffffffffffffffffffffff1614155b8015611f085750611f068184610ff7565b155b15611f4a57826040517fa9fbf51f000000000000000000000000000000000000000000000000000000008152600401611f4191906125f0565b60405180910390fd5b8115611fac57838573ffffffffffffffffffffffffffffffffffffffff168273ffffffffffffffffffffffffffffffffffffffff167f8c5be1e5ebec7d5bd14f71427d1e84f3dd0314c0f7b2291e5b200ac8c7c3b92560405160405180910390a45b505b8360045f8581526020019081526020015f205f6101000a81548173ffffffffffffffffffffffffffffffffffffffff021916908373ffffffffffffffffffffffffffffffffffffffff16021790555050505050565b61200e838383612232565b6120c1575f73ffffffffffffffffffffffffffffffffffffffff168373ffffffffffffffffffffffffffffffffffffffff160361208257806040517f7e2732890000000000000000000000000000000000000000000000000000000081526004016120799190612722565b60405180910390fd5b81816040517f177e802f0000000000000000000000000000000000000000000000000000000081526004016120b89291906131a8565b60405180910390fd5b505050565b5f805f90507a184f03e93ff9f4daa797ed6e38ed64bf6a1f0100000000000000008310612122577a184f03e93ff9f4daa797ed6e38ed64bf6a1f01000000000000000083816121185761211761317b565b5b0492506040810190505b6d04ee2d6d415b85acef8100000000831061215f576d04ee2d6d415b85acef810000000083816121555761215461317b565b5b0492506020810190505b662386f26fc10000831061218e57662386f26fc1000083816121845761218361317b565b5b0492506010810190505b6305f5e10083106121b7576305f5e10083816121ad576121ac61317b565b5b0492506008810190505b61271083106121dc5761271083816121d2576121d161317b565b5b0492506004810190505b606483106121ff57606483816121f5576121f461317b565b5b0492506002810190505b600a831061220e576001810190505b80915050919050565b61222183836122f2565b61222d5f8484846119f4565b505050565b5f8073ffffffffffffffffffffffffffffffffffffffff168373ffffffffffffffffffffffffffffffffffffffff16141580156122e957508273ffffffffffffffffffffffffffffffffffffffff168473ffffffffffffffffffffffffffffffffffffffff1614806122aa57506122a98484610ff7565b5b806122e857508273ffffffffffffffffffffffffffffffffffffffff166122d0836114e4565b73ffffffffffffffffffffffffffffffffffffffff16145b5b90509392505050565b5f73ffffffffffffffffffffffffffffffffffffffff168273ffffffffffffffffffffffffffffffffffffffff1603612362575f6040517f64a0ae9200000000000000000000000000000000000000000000000000000000815260040161235991906125f0565b60405180910390fd5b5f61236e83835f611536565b90505f73ffffffffffffffffffffffffffffffffffffffff168173ffffffffffffffffffffffffffffffffffffffff16146123e0575f6040517f73c6ac6e0000000000000000000000000000000000000000000000000000000081526004016123d791906125f0565b60405180910390fd5b505050565b5f604051905090565b5f80fd5b5f80fd5b5f7fffffffff0000000000000000000000000000000000000000000000000000000082169050919050565b61242a816123f6565b8114612434575f80fd5b50565b5f8135905061244581612421565b92915050565b5f602082840312156124605761245f6123ee565b5b5f61246d84828501612437565b91505092915050565b5f8115159050919050565b61248a81612476565b82525050565b5f6020820190506124a35f830184612481565b92915050565b5f81519050919050565b5f82825260208201905092915050565b5f5b838110156124e05780820151818401526020810190506124c5565b5f8484015250505050565b5f601f19601f8301169050919050565b5f612505826124a9565b61250f81856124b3565b935061251f8185602086016124c3565b612528816124eb565b840191505092915050565b5f6020820190508181035f83015261254b81846124fb565b905092915050565b5f819050919050565b61256581612553565b811461256f575f80fd5b50565b5f813590506125808161255c565b92915050565b5f6020828403121561259b5761259a6123ee565b5b5f6125a884828501612572565b91505092915050565b5f73ffffffffffffffffffffffffffffffffffffffff82169050919050565b5f6125da826125b1565b9050919050565b6125ea816125d0565b82525050565b5f6020820190506126035f8301846125e1565b92915050565b612612816125d0565b811461261c575f80fd5b50565b5f8135905061262d81612609565b92915050565b5f8060408385031215612649576126486123ee565b5b5f6126568582860161261f565b925050602061266785828601612572565b9150509250929050565b5f805f60608486031215612688576126876123ee565b5b5f6126958682870161261f565b93505060206126a68682870161261f565b92505060406126b786828701612572565b9150509250925092565b5f602082840312156126d6576126d56123ee565b5b5f6126e38482850161261f565b91505092915050565b6126f581612553565b82525050565b5f60408201905061270e5f830185612481565b61271b60208301846126ec565b9392505050565b5f6020820190506127355f8301846126ec565b92915050565b61274481612476565b811461274e575f80fd5b50565b5f8135905061275f8161273b565b92915050565b5f806040838503121561277b5761277a6123ee565b5b5f6127888582860161261f565b925050602061279985828601612751565b9150509250929050565b5f80fd5b5f80fd5b7f4e487b71000000000000000000000000000000000000000000000000000000005f52604160045260245ffd5b6127e1826124eb565b810181811067ffffffffffffffff82111715612800576127ff6127ab565b5b80604052505050565b5f6128126123e5565b905061281e82826127d8565b919050565b5f67ffffffffffffffff82111561283d5761283c6127ab565b5b612846826124eb565b9050602081019050919050565b828183375f83830152505050565b5f61287361286e84612823565b612809565b90508281526020810184848401111561288f5761288e6127a7565b5b61289a848285612853565b509392505050565b5f82601f8301126128b6576128b56127a3565b5b81356128c6848260208601612861565b91505092915050565b5f805f80608085870312156128e7576128e66123ee565b5b5f6128f48782880161261f565b94505060206129058782880161261f565b935050604061291687828801612572565b925050606085013567ffffffffffffffff811115612937576129366123f2565b5b612943878288016128a2565b91505092959194509250565b5f6060820190508181035f83015261296781866124fb565b905061297660208301856126ec565b61298360408301846125e1565b949350505050565b5f80fd5b5f80fd5b5f8083601f8401126129a8576129a76127a3565b5b8235905067ffffffffffffffff8111156129c5576129c461298b565b5b6020830191508360018202830111156129e1576129e061298f565b5b9250929050565b5f805f8060608587031215612a00576129ff6123ee565b5b5f612a0d8782880161261f565b945050602085013567ffffffffffffffff811115612a2e57612a2d6123f2565b5b612a3a87828801612993565b93509350506040612a4d87828801612572565b91505092959194509250565b5f8060408385031215612a6f57612a6e6123ee565b5b5f612a7c8582860161261f565b9250506020612a8d8582860161261f565b9150509250929050565b5f8060408385031215612aad57612aac6123ee565b5b5f612aba85828601612572565b9250506020612acb8582860161261f565b9150509250929050565b7f4e487b71000000000000000000000000000000000000000000000000000000005f52602260045260245ffd5b5f6002820490506001821680612b1957607f821691505b602082108103612b2c57612b2b612ad5565b5b50919050565b5f606082019050612b455f8301866125e1565b612b5260208301856126ec565b612b5f60408301846125e1565b949350505050565b7f416c7265616479207265676973746572656400000000000000000000000000005f82015250565b5f612b9b6012836124b3565b9150612ba682612b67565b602082019050919050565b5f6020820190508181035f830152612bc881612b8f565b9050919050565b7f4e6f7420726567697374657265640000000000000000000000000000000000005f82015250565b5f612c03600e836124b3565b9150612c0e82612bcf565b602082019050919050565b5f6020820190508181035f830152612c3081612bf7565b9050919050565b5f81905092915050565b5f612c4b826124a9565b612c558185612c37565b9350612c658185602086016124c3565b80840191505092915050565b5f612c7c8285612c41565b9150612c888284612c41565b91508190509392505050565b7f496e76616c6964207261726974790000000000000000000000000000000000005f82015250565b5f612cc8600e836124b3565b9150612cd382612c94565b602082019050919050565b5f6020820190508181035f830152612cf581612cbc565b9050919050565b7f4e487b71000000000000000000000000000000000000000000000000000000005f52601160045260245ffd5b5f612d3382612553565b91507fffffffffffffffffffffffffffffffffffffffffffffffffffffffffffffffff8203612d6557612d64612cfc565b5b600182019050919050565b5f819050815f5260205f209050919050565b5f6020601f8301049050919050565b5f82821b905092915050565b5f60088302612dcc7fffffffffffffffffffffffffffffffffffffffffffffffffffffffffffffffff82612d91565b612dd68683612d91565b95508019841693508086168417925050509392505050565b5f819050919050565b5f612e11612e0c612e0784612553565b612dee565b612553565b9050919050565b5f819050919050565b612e2a83612df7565b612e3e612e3682612e18565b848454612d9d565b825550505050565b5f90565b612e52612e46565b612e5d818484612e21565b505050565b5b81811015612e8057612e755f82612e4a565b600181019050612e63565b5050565b601f821115612ec557612e9681612d70565b612e9f84612d82565b81016020851015612eae578190505b612ec2612eba85612d82565b830182612e62565b50505b505050565b5f82821c905092915050565b5f612ee55f1984600802612eca565b1980831691505092915050565b5f612efd8383612ed6565b9150826002028217905092915050565b612f16826124a9565b67ffffffffffffffff811115612f2f57612f2e6127ab565b5b612f398254612b02565b612f44828285612e84565b5f60209050601f831160018114612f75575f8415612f63578287015190505b612f6d8582612ef2565b865550612fd4565b601f198416612f8386612d70565b5f5b82811015612faa57848901518255600182019150602085019450602081019050612f85565b86831015612fc75784890151612fc3601f891682612ed6565b8355505b6001600288020188555050505b505050505050565b5f612fe783856124b3565b9350612ff4838584612853565b612ffd836124eb565b840190509392505050565b5f6040820190508181035f830152613021818587612fdc565b905061303060208301846126ec565b949350505050565b7f4e6f74206173736574206f776e657200000000000000000000000000000000005f82015250565b5f61306c600f836124b3565b915061307782613038565b602082019050919050565b5f6020820190508181035f83015261309981613060565b9050919050565b5f81519050919050565b5f82825260208201905092915050565b5f6130c4826130a0565b6130ce81856130aa565b93506130de8185602086016124c3565b6130e7816124eb565b840191505092915050565b5f6080820190506131055f8301876125e1565b61311260208301866125e1565b61311f60408301856126ec565b818103606083015261313181846130ba565b905095945050505050565b5f8151905061314a81612421565b92915050565b5f60208284031215613165576131646123ee565b5b5f6131728482850161313c565b91505092915050565b7f4e487b71000000000000000000000000000000000000000000000000000000005f52601260045260245ffd5b5f6040820190506131bb5f8301856125e1565b6131c860208301846126ec565b939250505056fea2646970667358221220df7cac8f6ce98790a83324b6ca0ee94fe985e2a45d72481bb12cca37311d0a8564736f6c63430008180033",
  "immutableReferences": {},
  "source": "// SPDX-License-Identifier: MIT\r\npragma solidity ^0.8.24;\r\n\r\nimport \"@openzeppelin/contracts/access/Ownable.sol\";\r\nimport \"@openzeppelin/contracts/token/ERC721/ERC721.sol\";\r\n\r\ncontract Game is ERC721, Ownable {\r\n\r\n    uint256 private _tokenIdCounter;\r\n\r\n    struct Player {\r\n        bool registered;\r\n        uint256 score;\r\n    }\r\n\r\n    struct Asset {\r\n        string name;\r\n        uint256 rarity;\r\n        address owner;\r\n    }\r\n\r\n    mapping(address => Player) public players;\r\n    mapping(uint256 => Asset) public assets;\r\n\r\n    event PlayerRegistered(address indexed player);\r\n    event AssetMinted(uint256 indexed tokenId, address indexed to, string name, uint256 rarity);\r\n    event ScoreUpdated(address indexed player, uint256 newScore);\r\n    event AssetTransferred(uint256 indexed tokenId, address indexed from, address indexed to);\r\n\r\n    constructor() ERC721(\"GameAsset\", \"GAST\") Ownable(msg.sender) {}\r\n\r\n    modifier onlyRegistered(address addr) {\r\n        require(players[addr].registered, \"Not registered\");\r\n        _;\r\n    }\r\n\r\n    function registerPlayer() external {\r\n        require(!players[msg.sender].registered, \"Already registered\");\r\n        players[msg.sender] = Player(true, 0);\r\n        emit PlayerRegistered(msg.sender);\r\n    }\r\n\r\n    function mintAsset(\r\n        address to,\r\n        string calldata name,\r\n        uint256 rarity\r\n    ) external onlyOwner onlyRegistered(to) returns (uint256) {\r\n        require(rarity >= 1 && rarity <= 3, \"Invalid rarity\");\r\n\r\n        _tokenIdCounter++;\r\n        uint256 newId = _tokenIdCounter;\r\n\r\n        _safeMint(to, newId);\r\n        assets[newId] = Asset(name, rarity, to);\r\n\r\n        emit AssetMinted(newId, to, name, rarity);\r\n        return newId;\r\n    }\r\n\r\n    function updateScore(address player, uint256 score) external onlyOwner onlyRegistered(player) {\r\n        players[player].score = score;\r\n        emit ScoreUpdated(player, score);\r\n    }\r\n\r\n    function transferAsset(uint256 tokenId, address to) external onlyRegistered(to) {\r\n        require(ownerOf(tokenId) == msg.sender, \"Not asset owner\");\r\n        _transfer(msg.sender, to, tokenId);\r\n        assets[tokenId].owner = to;\r\n        emit AssetTransferred(tokenId, msg.sender, to);\r\n    }\r\n\r\n    function getPlayer(address addr) external view returns (bool registered, uint256 score) {\r\n        Player memory p = players[addr];\r\n        return (p.registered, p.score);\r\n    }\r\n\r\n    function getAsset(uint256 tokenId) external view returns (string memory name, uint256 rarity, address owner) {\r\n        Asset memory a = assets[tokenId];\r\n        return (a.name, a.rarity, a.owner);\r\n    }\r\n}",
  "sourcePath": "C:\\Users\\melsh\\Downloads\\blockchainn\\contracts\\Game.sol",
  "compiler": {
    "name": "solc",
    "version": "0.8.24+commit.e11b9ed9.Emscripten.clang"
  },
  "schemaVersion": "3.4.16",
  "updatedAt": "2026-04-09T15:08:07.285Z",
  "devdoc": {
    "errors": {
      "ERC721IncorrectOwner(address,uint256,address)": [
        {
          "details": "Indicates an error related to the ownership over a particular token. Used in transfers.",
          "params": {
            "owner": "Address of the current owner of a token.",
            "sender": "Address whose tokens are being transferred.",
            "tokenId": "Identifier number of a token."
          }
        }
      ],
      "ERC721InsufficientApproval(address,uint256)": [
        {
          "details": "Indicates a failure with the `operator`’s approval. Used in transfers.",
          "params": {
            "operator": "Address that may be allowed to operate on tokens without being their owner.",
            "tokenId": "Identifier number of a token."
          }
        }
      ],
      "ERC721InvalidApprover(address)": [
        {
          "details": "Indicates a failure with the `approver` of a token to be approved. Used in approvals.",
          "params": {
            "approver": "Address initiating an approval operation."
          }
        }
      ],
      "ERC721InvalidOperator(address)": [
        {
          "details": "Indicates a failure with the `operator` to be approved. Used in approvals.",
          "params": {
            "operator": "Address that may be allowed to operate on tokens without being their owner."
          }
        }
      ],
      "ERC721InvalidOwner(address)": [
        {
          "details": "Indicates that an address can't be an owner. For example, `address(0)` is a forbidden owner in EIP-20. Used in balance queries.",
          "params": {
            "owner": "Address of the current owner of a token."
          }
        }
      ],
      "ERC721InvalidReceiver(address)": [
        {
          "details": "Indicates a failure with the token `receiver`. Used in transfers.",
          "params": {
            "receiver": "Address to which tokens are being transferred."
          }
        }
      ],
      "ERC721InvalidSender(address)": [
        {
          "details": "Indicates a failure with the token `sender`. Used in transfers.",
          "params": {
            "sender": "Address whose tokens are being transferred."
          }
        }
      ],
      "ERC721NonexistentToken(uint256)": [
        {
          "details": "Indicates a `tokenId` whose `owner` is the zero address.",
          "params": {
            "tokenId": "Identifier number of a token."
          }
        }
      ],
      "OwnableInvalidOwner(address)": [
        {
          "details": "The owner is not a valid owner account. (eg. `address(0)`)"
        }
      ],
      "OwnableUnauthorizedAccount(address)": [
        {
          "details": "The caller account is not authorized to perform an operation."
        }
      ]
    },
    "events": {
      "Approval(address,address,uint256)": {
        "details": "Emitted when `owner` enables `approved` to manage the `tokenId` token."
      },
      "ApprovalForAll(address,address,bool)": {
        "details": "Emitted when `owner` enables or disables (`approved`) `operator` to manage all of its assets."
      },
      "Transfer(address,address,uint256)": {
        "details": "Emitted when `tokenId` token is transferred from `from` to `to`."
      }
    },
    "kind": "dev",
    "methods": {
      "approve(address,uint256)": {
        "details": "See {IERC721-approve}."
      },
      "balanceOf(address)": {
        "details": "See {IERC721-balanceOf}."
      },
      "getApproved(uint256)": {
        "details": "See {IERC721-getApproved}."
      },
      "isApprovedForAll(address,address)": {
        "details": "See {IERC721-isApprovedForAll}."
      },
      "name()": {
        "details": "See {IERC721Metadata-name}."
      },
      "owner()": {
        "details": "Returns the address of the current owner."
      },
      "ownerOf(uint256)": {
        "details": "See {IERC721-ownerOf}."
      },
      "renounceOwnership()": {
        "details": "Leaves the contract without owner. It will not be possible to call `onlyOwner` functions. Can only be called by the current owner. NOTE: Renouncing ownership will leave the contract without an owner, thereby disabling any functionality that is only available to the owner."
      },
      "safeTransferFrom(address,address,uint256)": {
        "details": "See {IERC721-safeTransferFrom}."
      },
      "safeTransferFrom(address,address,uint256,bytes)": {
        "details": "See {IERC721-safeTransferFrom}."
      },
      "setApprovalForAll(address,bool)": {
        "details": "See {IERC721-setApprovalForAll}."
      },
      "supportsInterface(bytes4)": {
        "details": "See {IERC165-supportsInterface}."
      },
      "symbol()": {
        "details": "See {IERC721Metadata-symbol}."
      },
      "tokenURI(uint256)": {
        "details": "See {IERC721Metadata-tokenURI}."
      },
      "transferFrom(address,address,uint256)": {
        "details": "See {IERC721-transferFrom}."
      },
      "transferOwnership(address)": {
        "details": "Transfers ownership of the contract to a new account (`newOwner`). Can only be called by the current owner."
      }
    },
    "version": 1
  },
  "userdoc": {
    "kind": "user",
    "methods": {},
    "version": 1
  }
}